:020000040800F2
:100000000028002031180008C1170008C717000891
:10001000CD170008D3170008D9170008000000000A
:10002000000000000000000000000000DF170008D2
:10003000EB17000800000000F7170008031800087D
:10004000791800087918000879180008791800084C
:10005000791800087918000879180008791800083C
:10006000791800087918000879180008791800082C
:10007000791800087918000879180008791800081C
:10008000791800087918000879180008791800080C
:1000900079180008791800087918000879180008FC
:1000A00079180008791800087918000879180008EC
:1000B00011180008791800080000000079180008DD
:1000C00079180008000000000000000079180008FE
:1000D00000000000791800087918000800000000EE
:1000E0007918000879180008791800080000000045
:1000F0000000000000000000000000000000000000
:0C01000000000000000000005FF808F1A3
:1001100010B5054C237833B9044B13B10448AFF341
:1001200000800123237010BD2C000020000000007F
:10013000D02E000808B5034B1BB103490348AFF3A9
:10014000008008BD0000000030000020D02E000814
:1001500081F0004102E000BF83F0004330B54FEA78
:1001600041044FEA430594EA050F08BF90EA020FE5
:100170001FBF54EA000C55EA020C7FEA645C7FEA78
:10018000655C00F0E2804FEA5454D4EB5555B8BF9B
:100190006D420CDD2C4480EA020281EA030382EA0C
:1001A000000083EA010180EA020281EA0303362D9E
:1001B00088BF30BD11F0004F4FEA01314FF4801C71
:1001C0004CEA113102D0404261EB410113F0004F83
:1001D0004FEA03334CEA133302D0524263EB43033A
:1001E00094EA050F00F0A780A4F10104D5F1200ED8
:1001F0000DDB02FA0EFC22FA05F2801841F1000133
:1002000003FA0EF2801843FA05F359410EE0A5F106
:1002100020050EF1200E012A03FA0EFC28BF4CF037
:10022000020C43FA05F3C01851EBE37101F00045ED
:1002300007D54FF0000EDCF1000C7EEB00006EEBFA
:100240000101B1F5801F1BD3B1F5001F0CD3490884
:100250005FEA30004FEA3C0C04F101044FEA4452DB
:1002600012F5800F80F09A80BCF1004F08BF5FEA62
:10027000500C50F1000041EB045141EA050130BD42
:100280005FEA4C0C404141EB0101013C28BFB1F554
:10029000801FE9D291F0000F04BF01460020B1FA9F
:1002A00081F308BF2033A3F10B03B3F120020CDA72
:1002B0000C3208DD02F1140CC2F10C0201FA0CF050
:1002C00021FA02F10CE002F11402D8BFC2F1200CB5
:1002D00001FA02F120FA0CFCDCBF41EA0C0190406B
:1002E000E41AA2BF01EB0451294330BD6FEA0404B4
:1002F0001F3C1CDA0C340EDC04F11404C4F120029F
:1003000020FA04F001FA02F340EA030021FA04F3B0
:1003100045EA030130BDC4F10C04C4F1200220FA07
:1003200002F001FA04F340EA0300294630BD21FA45
:1003300004F0294630BD94F0000F83F4801306BF0B
:1003400081F480110134013D4EE77FEA645C18BFFF
:100350007FEA655C29D094EA050F08BF90EA020F96
:1003600005D054EA000C04BF1946104630BD91EA8E
:10037000030F1EBF0021002030BD5FEA545C05D191
:100380004000494128BF41F0004130BD14F58004D0
:100390003CBF01F5801130BD01F0004545F0FE4144
:1003A00041F470014FF0000030BD7FEA645C1ABF79
:1003B000194610467FEA655C1CBF0B46024650EAB0
:1003C000013406BF52EA033591EA030F41F40021DC
:1003D00030BD00BF90F0000F04BF0021704730B562
:1003E0004FF4806404F132044FF000054FF0000137
:1003F00050E700BF90F0000F04BF0021704730B5F8
:100400004FF4806404F1320410F0004548BF4042CC
:100410004FF000013EE700BF42004FEAE2014FEA21
:1004200031014FEA02701FBF12F07F4393F07F4FFC
:1004300081F06051704732F07F4208BF704793F0FF
:100440007F4F04BF41F40021704730B54FF4607412
:1004500001F0004521F000411CE700BF50EA010215
:1004600008BF704730B54FF000050AE050EA0102BE
:1004700008BF704730B511F0004502D5404261EB2E
:1004800041014FF4806404F132045FEA915C3FF46F
:10049000D8AE4FF003025FEADC0C18BF03325FEA0C
:1004A000DC0C18BF033202EBDC02C2F1200300FABD
:1004B00003FC20FA02F001FA03FE40EA0E0021FAE2
:1004C00002F11444BDE600BF70B54FF0FF0C4CF4D0
:1004D000E06C1CEA11541DBF1CEA135594EA0C0F82
:1004E00095EA0C0F00F0DEF82C4481EA030621EABD
:1004F0004C5123EA4C5350EA013518BF52EA0335F8
:1005000041F4801143F4801338D0A0FB02CE4FF0A9
:100510000005E1FB02E506F00042E0FB03E54FF0D9
:100520000006E1FB03569CF0000F18BF4EF0010ED1
:10053000A4F1FF04B6F5007F64F5407404D25FEACD
:100540004E0E6D4146EB060642EAC62141EA555180
:100550004FEAC52040EA5E504FEACE2EB4F1FD0CC2
:1005600088BFBCF5E06F1ED8BEF1004F08BF5FEA40
:10057000500E50F1000041EB045170BD06F00046F2
:1005800046EA010140EA020081EA0301B4EB5C049F
:10059000C2BFD4EB0C0541EA045170BD41F4801197
:1005A0004FF0000E013C00F3AB8014F1360FDEBFBC
:1005B000002001F0004170BDC4F10004203C35DA98
:1005C0000C341BDC04F11404C4F1200500FA05F31B
:1005D00020FA04F001FA05F240EA020001F00042BC
:1005E00021F0004110EBD37021FA04F642EB060132
:1005F0005EEA430E08BF20EAD37070BDC4F10C045C
:10060000C4F1200500FA04F320FA05F001FA04F21F
:1006100040EA020001F0004110EBD37041F100010B
:100620005EEA430E08BF20EAD37070BDC4F1200516
:1006300000FA05F24EEA020E20FA04F301FA05F27E
:1006400043EA020321FA04F001F0004121FA04F226
:1006500020EA020000EBD3705EEA430E08BF20EAF6
:10066000D37070BD94F0000F0FD101F00046400030
:1006700041EB010111F4801F08BF013CF7D041EAB2
:10068000060195F0000F18BF704703F000465200B6
:1006900043EB030313F4801F08BF013DF7D043EA87
:1006A0000603704794EA0C0F0CEA135518BF95EA3D
:1006B0000C0F0CD050EA410618BF52EA4306D1D1C4
:1006C00081EA030101F000414FF0000070BD50EAE3
:1006D000410606BF1046194652EA430619D094EA6D
:1006E0000C0F02D150EA013613D195EA0C0F05D157
:1006F00052EA03361CBF104619460AD181EA0301AB
:1007000001F0004141F0FE4141F470014FF0000062
:1007100070BD41F0FE4141F4780170BD70B54FF0FD
:10072000FF0C4CF4E06C1CEA11541DBF1CEA13557D
:1007300094EA0C0F95EA0C0F00F0A7F8A4EB05045F
:1007400081EA030E52EA03354FEA013100F0888056
:100750004FEA03334FF0805545EA131343EA12631F
:100760004FEA022245EA111545EA10654FEA0026D4
:100770000EF000419D4208BF964244F1FD0404F58D
:10078000407402D25B084FEA3202B61A65EB0305E9
:100790005B084FEA32024FF480104FF4002CB6EBA6
:1007A000020E75EB030E22BFB61A754640EA0C0026
:1007B0005B084FEA3202B6EB020E75EB030E22BF66
:1007C000B61A754640EA5C005B084FEA3202B6EBA7
:1007D000020E75EB030E22BFB61A754640EA9C0066
:1007E0005B084FEA3202B6EB020E75EB030E22BF36
:1007F000B61A754640EADC0055EA060E18D04FEAF4
:10080000051545EA16754FEA06164FEAC30343EA93
:1008100052734FEAC2025FEA1C1CC0D111F4801F60
:100820000BD141EA00014FF000004FF0004CB6E759
:1008300011F4801F04BF01430020B4F1FD0C88BFF8
:10084000BCF5E06F3FF6AFAEB5EB030C04BFB6EB03
:10085000020C5FEA500C50F1000041EB045170BDF6
:100860000EF0004E4EEA113114EB5C04C2BFD4EB23
:100870000C0541EA045170BD41F480114FF0000EA7
:10088000013C90E645EA060E8DE60CEA135594EA23
:100890000C0F08BF95EA0C0F3FF43BAF94EA0C0F26
:1008A0000AD150EA01347FF434AF95EA0C0F7FF49B
:1008B00025AF104619462CE795EA0C0F06D152EAEF
:1008C00003353FF4FDAE1046194622E750EA4106D3
:1008D00018BF52EA43067FF4C5AE50EA41047FF4E4
:1008E0000DAF52EA43057FF4EBAE12E74FEA410247
:1008F00012F5001215D211D56FF47873B3EB625272
:1009000012D94FEAC12343F0004343EA505311F098
:10091000004F23FA02F018BF404270474FF000002A
:10092000704750EA013005D111F0004008BF6FF068
:10093000004070474FF00000704700BF80B582B0A4
:1009400000AF00237B606EE03B4A7B68134419785C
:100950003A4A7B6813440A461A707B68002B0BD115
:100960000821374801F074FA03461946324A7B6879
:1009700013440A461A7019E07B68012B0BD1102131
:100980002F4801F065FA034619462B4A7B68134449
:100990000A461A700AE02021294801F059FA034654
:1009A0001946254A7B6813440A461A70224A7B6816
:1009B00013441A7821497B680B441B789A4208D16A
:1009C0001D4A7B68134419781E4A7B6813440A4603
:1009D0001A701C4A7B6813441B78002B16D11A4AE4
:1009E0007B6832F81330632B0AD8174A7B6832F8D9
:1009F0001330013399B2144A7B6822F813100FE0C8
:100A0000124A7B68134401221A7009E00E4A7B687F
:100A1000002122F813100D4A7B68134400221A703B
:100A20007B6801337B607B68022B8DDD00BF00BFDC
:100A30000837BD4680BD00BF4C000020500000209C
:100A40000008014048000020580000205400002009
:100A500080B483B000AF0346FB71FB79022B01D950
:100A6000FF2302E0FB79034AD35C18460C37BD46EE
:100A700080BC70474800002080B485B000AF78602B
:100A80007B680F2B5AD801A252F823F0CD0A000838
:100A9000D30A0008D90A0008DF0A0008E50A00089E
:100AA000EB0A0008F10A0008F70A0008FD0A00082E
:100AB000050B00080D0B0008150B00081D0B0008A6
:100AC000250B00082D0B0008350B00080123FB81C6
:100AD00034E00223FB8131E00423FB812EE0082374
:100AE000FB812BE01023FB8128E02023FB8125E004
:100AF0004023FB8122E08023FB811FE04FF48073C1
:100B0000FB811BE04FF40073FB8117E04FF480631F
:100B1000FB8113E04FF40063FB810FE04FF480533F
:100B2000FB810BE04FF40053FB8107E04FF480435F
:100B3000FB8103E04FF40043FB8100BFFB891846B3
:100B40001437BD4680BC704780B584B000AF786074
:100B500039603B68002B02D00123FB7301E00023C6
:100B6000FB737868FFF788FF0346BB81FA7BBB897C
:100B70001946034801F083F900BF1037BD4680BD18
:100B80000008014080B584B000AF786039603B68F0
:100B9000002B02D00123FB7301E00023FB73786874
:100BA000FFF76AFF0346BB81FA7BBB8919460348FE
:100BB00001F065F900BF1037BD4680BD000C014053
:100BC00080B584B000AF786039603B68274A82FB0B
:100BD00003129210DB17D31AFB603A68234B83FB96
:100BE00002139910D317C91A0B469B000B445B00E4
:100BF000D31A3B600023BB6014E07A68BB681A44D8
:100C00003B68002B03F00103B8BF5B421946104656
:100C1000FFF7B8FF3B68DA0F13445B103B60BB681B
:100C20000133BB60BB68032BE7DD0423BB6014E02A
:100C30007A68BB681A44FB68002B03F00103B8BF55
:100C40005B4219461046FFF79DFFFB68DA0F13441D
:100C50005B10FB60BB680133BB60BB68072BE7DD43
:100C600000BF00BF1037BD4680BD00BF6766666627
:100C700080B582B000AF786039607B68002B12D0FD
:100C800001210D20FFF760FF01210E20FFF75CFF1F
:100C900001210F20FFF758FF3B680C330021184655
:100CA000FFF752FF11E001210A20FFF74DFF01215C
:100CB0000B20FFF749FF01210C20FFF745FF3B68A0
:100CC000093300211846FFF73FFF00BF0837BD4634
:100CD00080BD000080B500AF494B1B68013B032B72
:100CE0007ED801A252F823F0F90C0008330D000859
:100CF0006D0D0008A70D0008424B1B68002B07D1A3
:100D0000414B1B683F4A136001210120FFF7B0FFF0
:100D10003C4B1B683D4A13603A4B1B68013B394A08
:100D20001360384B1B68002B61D1354B02221A60CF
:100D30005DE0344B1B68002B07D1354B1B68314AF3
:100D4000136002210120FFF793FF2E4B1B682F4AEF
:100D500013602C4B1B68013B2A4A1360294B1B680C
:100D6000002B46D1264B03221A6042E0254B1B681C
:100D7000002B07D1274B1B68224A13600321012057
:100D8000FFF776FF1F4B1B68204A13601D4B1B6843
:100D9000013B1C4A13601B4B1B68002B2BD1184BCB
:100DA00004221A6027E0174B1B68002B07D1184B51
:100DB0001B68144A136002210120FFF759FF114BF1
:100DC0001B68124A13600F4B1B68013B0D4A1360EE
:100DD0000C4B1B68002B10D1094B01221A600CE050
:100DE000074B01221A60074B00221A6006E000BF81
:100DF00004E000BF02E000BF00E000BF00BF80BD14
:100E0000600000206800002000000020700000202A
:100E1000040000200800002080B500AF494B1B688B
:100E2000013B032B7ED801A252F823F03D0E0008AF
:100E3000770E0008B10E0008EB0E0008424B1B684D
:100E4000002B07D1414B1B683F4A13600121002052
:100E5000FFF70EFF3C4B1B683D4A13603A4B1B6883
:100E6000013B394A1360384B1B68002B61D1354B6D
:100E700004221A605DE0344B1B68002B07D1354B10
:100E80001B68314A136002210020FFF7F1FE2E4B50
:100E90001B682F4A13602C4B1B68013B2A4A1360C6
:100EA000294B1B68002B46D1264B01221A6042E0D9
:100EB000254B1B68002B07D1274B1B68224A136068
:100EC00003210020FFF7D4FE1F4B1B68204A13604C
:100ED0001D4B1B68013B1C4A13601B4B1B68002BFE
:100EE0002BD1184B02221A6027E0174B1B68002BEE
:100EF00007D1184B1B68144A136002210020FFF72A
:100F0000B7FE114B1B68124A13600F4B1B68013B65
:100F10000D4A13600C4B1B68002B10D1094B0322A8
:100F20001A600CE0074B03221A60074B00221A607C
:100F300006E000BF04E000BF02E000BF00E000BF29
:100F400000BF80BD640000206C0000200000002075
:100F500074000020040000200800002080B500AFCD
:100F6000FFF7B8FEFFF758FF00BF80BD000000008C
:100F7000B0B500AF1C4B1B681846FFF73BFA4FF0AB
:100F800000021A4BFFF7A0FA02460B46104619461C
:100F900013A3D3E90023FFF797FA02460B46144642
:100FA0001D46134B5B680133114AD268013202FBC4
:100FB00003F31846FFF70EFA02460B462046294671
:100FC000FFF7ACFB02460B4610461946FFF78EFCB6
:100FD0000346084A136000BFB0BD00BFAFF30080F6
:100FE0000000000080842E410C0000200000E03F43
:100FF000940000201000002080B500AF1A4B1B6841
:10100000013B194A1360184B1B68002B29DC164B57
:101010001E221A60154B1B68002B11D0134B0022A7
:101020001A6001210720FFF7ADFD114B1B6819461F
:101030000820FFF7C5FD00210620FFF7A3FD10E003
:101040000A4B01221A6001210620FFF79BFD094B84
:101050001B6819460820FFF7B3FD00210720FFF7A2
:1010600091FD00BF80BD00BF1C000020900000204B
:10107000700000207400002080B584B000AF78605C
:101080000023FB6015E07B6803F00103002B04D014
:101090000121F868FFF776FD03E00021F868FFF70B
:1010A00071FD7B68DA0F13445B107B60FB680133D2
:1010B000FB60FB68032BE6DD00BF00BF1037BD46B9
:1010C00080BD000080B400AF094B1B68002B0BDD16
:1010D000074B1B68013B064A1360054B1B68002B3E
:1010E00002DC044B01221A6000BFBD4680BC704781
:1010F000140000207800002080B500AF054B0122CD
:101100001A600120FFF7B8FF034B01221A6000BFED
:1011100080BD00BF880000207C00002080B500AFAB
:101120001E4B1B68012B0FD11C4B02221A601C4B5B
:101130001B681C4A13601C4B00221A601B4B0022C8
:101140001A601B4B00221A600220FFF795FF154B17
:101150001B6819460820FFF733FD164B1B68002B50
:101160000AD10120FFF774FC0346012B04D10D4B7B
:101170001B6801330B4A13600120FFF769FC03462B
:101180000C4A13600220FFF763FC0346002B03D0D8
:10119000044B1B68024A136000BF80BD880000201A
:1011A000000000208C0000207C0000206000002057
:1011B000640000208400002080B500AF1A4B1B683B
:1011C000022B06D1184B03221A60184B1B68184AD1
:1011D00013600320FFF750FF154B1B6819460820CA
:1011E000FFF7EEFC134B1B68002B0AD10120FFF721
:1011F0002FFC0346012B04D10D4B1B6801330C4A15
:1012000013600120FFF724FC03460A4A1360022002
:10121000FFF71EFC0346002B03D0054B1B68034A57
:10122000136000BF80BD00BF8800002004000020C4
:101230008C0000208400002080B500AF1A4B1B6892
:10124000032B06D1184B04221A60184B1B68184A4E
:1012500013600420FFF710FF154B1B681946082088
:10126000FFF7AEFC134B1B68002B0AD10120FFF7E0
:10127000EFFB0346012B04D10D4B1B6801330C4AD5
:1012800013600120FFF7E4FB03460A4A13600220C3
:10129000FFF7DEFB0346002B03D0054B1B68034A18
:1012A000136000BF80BD00BF880000200800002040
:1012B0008C0000208400002080B500AF454B1B68E7
:1012C000013B072B00F2838001A252F823F000BFFC
:1012D000F11200080913000821130008391300084F
:1012E00051130008691300088113000899130008BE
:1012F000FFF7A2FF0020FFF7ABFB0346012B57D1FE
:10130000344B02221A6053E0FFF7F6FE0020FFF78D
:101310009FFB0346002B4DD12E4B03221A6049E060
:10132000FFF7EAFE0020FFF793FB0346012B43D1B2
:10133000284B04221A603FE0FFF7F0FE0020FFF781
:1013400087FB0346002B39D1224B05221A6035E07A
:10135000FFF7E4FE0020FFF77BFB0346012B2FD1B4
:101360001C4B06221A602BE0FFF726FF0020FFF738
:101370006FFB0346002B25D1164B07221A6021E094
:10138000FFF71AFF0020FFF763FB0346012B1BD179
:10139000104B08221A6017E0FFF74EFF0020FFF7FE
:1013A00057FB0346002B11D10A4B01221A600DE0B6
:1013B00000BF0CE000BF0AE000BF08E000BF06E08D
:1013C00000BF04E000BF02E000BF00E000BF00BFBC
:1013D00080BD00BF1800002080B582B000AF7860EB
:1013E000FFF70AFEFFF76EFEFFF7A8FA374B1B6800
:1013F000012B56D1354B00221A60354B1B68354AFC
:101400001360354B1B680133334A1360334B1B6841
:10141000013B072B47D801A252F823F081140008A2
:10142000A7140008A71400083D1400083D14000884
:101430005F1400085F140008811400084FF48061F5
:10144000274800F034FD4FF40051254800F02FFDEF
:1014500001224FF45841224800F011FD24E04FF4DE
:1014600000611F4800F023FD4FF480411C4800F04C
:101470001EFD01224FF43441194800F000FD13E035
:101480004FF48051164800F012FD4FF4004114480B
:1014900000F00DFD01224FF4D841114800F0EFFC9F
:1014A00002E000BF00E000BF0B4B1B68022B08D11D
:1014B000094B00221A600B4B1B68002B01D0FFF771
:1014C0004DFD00BF0837BD4680BD00BF780000203D
:1014D00010000020140000208000002018000020D0
:1014E000000801407C00002080B500AF00F0C6F984
:1014F00000F014F800F09AF800F04CF8054801F0FC
:1015000027F9FFF735FD4021034800F0D0FCFFF735
:10151000D3FEFCE794000020000C014080B590B0A1
:1015200000AF07F1180328220021184601F0C8FC7B
:101530003B1D00221A605A609A60DA601A61022329
:10154000BB610123BB621023FB6200237B6307F1B5
:101550001803184600F0C4FC0346002B01D000F02D
:10156000D3F80F237B600023BB600023FB600023C4
:101570003B6100237B613B1D0021184600F030FFDA
:101580000346002B01D000F0BFF800BF4037BD4636
:1015900080BD000080B586B000AF07F108030022CF
:1015A0001A605A609A60DA603B4600221A605A60FC
:1015B0001D4B4FF080421A601B4B40F2E7325A60DD
:1015C000194B00229A60184B0922DA60164B002250
:1015D0001A61154B00229A61134801F069F803461D
:1015E000002B01D000F090F84FF48053BB6007F15E
:1015F000080319460C4801F0FFF90346002B01D0FF
:1016000000F082F800233B6000237B603B461946D4
:10161000054801F0C7FB0346002B01D000F074F829
:1016200000BF1837BD4680BD9400002080B588B04B
:1016300000AF07F1100300221A605A609A60DA6066
:101640002E4B9B692D4A43F0200393612B4B9B69E2
:1016500003F02003FB60FB68284B9B69274A43F09B
:1016600004039361254B9B6903F00403BB60BB68D3
:10167000224B9B69214A43F0080393611F4B9B69EE
:1016800003F008037B607B6800224FF6FF711C4863
:1016900000F0F5FB00224FF47F411A4800F0EFFB09
:1016A00038233B6100237B610023BB6107F11003FA
:1016B0001946144800F052FA4FF6FF733B610123BC
:1016C0007B610023BB610223FB6107F11003194614
:1016D0000B4800F043FA4FF47F433B6101237B61E9
:1016E0000023BB610223FB6107F110031946054883
:1016F00000F034FA00BF2037BD4680BD0010024024
:10170000000C01400008014080B400AF72B600BF79
:10171000FEE7000080B485B000AF154B9B69144A0A
:1017200043F001039361124B9B6903F00103BB601B
:10173000BB680F4BDB690E4A43F08053D3610C4BFF
:10174000DB6903F080537B607B680A4B5B68FB605E
:10175000FB6823F0E063FB60FB6843F08063FB60A1
:10176000044AFB68536000BF1437BD4680BC704715
:10177000001002400000014080B584B000AF7860E6
:101780007B681B68B3F1804F13D10C4BDB690B4AAC
:1017900043F00103D361094BDB6903F00103FB60F4
:1017A000FB68002200211C2000F0A1F91C2000F0A1
:1017B000BAF900BF1037BD4680BD00BF001002401F
:1017C00080B400AFFEE780B400AFFEE780B400AFA6
:1017D000FEE780B400AFFEE780B400AFFEE780B460
:1017E00000AF00BFBD4680BC704780B400AF00BFF3
:1017F000BD4680BC704780B400AF00BFBD4680BC12
:10180000704780B500AF00F07FF800BF80BD0000DA
:1018100080B500AF024800F0E7FF00BF80BD00BF09
:101820009400002080B400AF00BFBD4680BC70476C
:101830000C480D490D4A002302E0D458C45004332B
:10184000C4188C42F9D30A4A0A4C002301E0136001
:101850000432A242FBD3FFF7E5FF01F00DFBFFF7D7
:1018600043FE7047000000202C000020102F0008CD
:101870002C000020E0000020FEE7000080B500AF53
:10188000084B1B68074A43F010031360032000F065
:1018900023F90F2000F008F8FFF73CFF002318465B
:1018A00080BD00BF0020024080B582B000AF7860EC
:1018B000124B1A68124B1B7819464FF47A73B3FB1C
:1018C000F1F3B2FBF3F3184600F03BF90346002BAB
:1018D00001D001230EE07B680F2B0AD80022796823
:1018E0004FF0FF3000F003F9064A7B6813600023D5
:1018F00000E0012318460837BD4680BD20000020C7
:10190000280000202400002080B400AF054B1B7885
:101910001A46054B1B681344034A136000BFBD46BB
:1019200080BC704728000020DC00002080B400AF9D
:10193000024B1B681846BD4680BC7047DC00002087
:1019400080B485B000AF78607B6803F00703FB606C
:101950000C4BDB68BB60BA684FF6FF031340BB60FB
:10196000FB681A02BB68134343F0BF6343F40033C0
:10197000BB60044ABB68D36000BF1437BD4680BC5F
:10198000704700BF00ED00E080B400AF044BDB689F
:101990001B0A03F007031846BD4680BC704700BF12
:1019A00000ED00E080B483B000AF0346FB7197F90F
:1019B0000730002B0BDBFB7903F01F02064997F978
:1019C00007305B09012000FA02F241F8232000BF32
:1019D0000C37BD4680BC704700E100E080B483B0A6
:1019E00000AF03463960FB7197F90730002B0ADB23
:1019F0003B68DAB20C4997F907301201D2B20B44B6
:101A000083F800230AE03B68DAB20849FB7903F067
:101A10000F03043B1201D2B20B441A7600BF0C37FD
:101A2000BD4680BC704700BF00E100E000ED00E073
:101A300080B489B000AFF860B9607A60FB6803F0E9
:101A40000703FB61FB69C3F10703042B28BF0423D1
:101A5000BB61FB690433062B02D9FB69033B00E041
:101A600000237B614FF0FF32BB6902FA03F3DA43D4
:101A7000BB681A407B699A404FF0FF317B6901FADD
:101A800003F3D9437B680B40134318462437BD4604
:101A900080BC704780B582B000AF78607B68013B46
:101AA000B3F1807F01D301230FE00A4A7B68013B39
:101AB00053600F214FF0FF30FFF790FF054B0022DE
:101AC0009A60044B07221A60002318460837BD4667
:101AD00080BD00BF10E000E080B582B000AF78604C
:101AE0007868FFF72DFF00BF0837BD4680BD80B581
:101AF00086B000AF0346B9607A60FB7300237B6158
:101B0000FFF742FF78617A68B9687869FFF790FF5C
:101B1000024697F90F3011461846FFF75FFF00BFE6
:101B20001837BD4680BD80B582B000AF0346FB715B
:101B300097F907301846FFF735FF00BF0837BD4655
:101B400080BD80B582B000AF78607868FFF7A2FFF3
:101B5000034618460837BD4680BD000080B48BB0F0
:101B600000AF7860396000237B6200233B6248E16C
:101B700001227B6A02FA03F3FB613B681B68FA6986
:101B80001340BB61BA69FB699A4240F037813B68F8
:101B90005B68A34A93425ED0A14A934275D8A14A9A
:101BA000934258D09F4A93426FD89F4A934252D053
:101BB0009D4A934269D89D4A93424CD09B4A934296
:101BC00063D89B4A934246D0994A93425DD8122BE0
:101BD0002AD8122B59D801A252F823F0571C00081A
:101BE000311C0008431C0008851C00088B1C0008E1
:101BF0008B1C00088B1C00088B1C00088B1C000829
:101C00008B1C00088B1C00088B1C00088B1C000818
:101C10008B1C00088B1C00088B1C00088B1C000808
:101C2000391C00084D1C0008824A934213D02CE056
:101C30003B68DB683B6229E03B68DB6804333B625E
:101C400024E03B68DB6808333B621FE03B68DB68ED
:101C50000C333B621AE03B689B68002B02D10423E3
:101C60003B6213E03B689B68012B05D108233B6274
:101C70007B68FA691A6109E008233B627B68FA69AC
:101C80005A6103E000233B6200E000BFBB69FF2B09
:101C900001D87B6801E07B6804337B61BB69FF2B63
:101CA00002D87B6A9B0002E07B6A083B9B003B6199
:101CB0007B691A680F213B6901FA03F3DB431A4081
:101CC000396A3B6901FA03F31A437B691A603B687E
:101CD0005B6803F08053002B00F09080564B9B69AB
:101CE000554A43F001039361534B9B6903F0010391
:101CF000BB60BB68514A7B6A9B08023352F82330B1
:101D0000FB607B6A03F003039B000F2202FA03F3DC
:101D1000DB43FA681340FB607B68494A93420DD06D
:101D20007B68484A934207D07B68474A934201D177
:101D3000022304E0032302E0012300E000237A6A87
:101D400002F0030292009340FA681343FB603B49A0
:101D50007B6A9B080233FA6841F823203B685B6882
:101D600003F48033002B06D0384B1A683749BB691F
:101D700013430B6006E0354B1A68BB69DB433349FC
:101D800013400B603B685B6803F40033002B06D004
:101D90002E4B5A682D49BB6913434B6006E02B4B11
:101DA0005A68BB69DB43294913404B603B685B6859
:101DB00003F48013002B06D0244B9A682349BB6997
:101DC00013438B6006E0214B9A68BB69DB431F49D4
:101DD00013408B603B685B6803F40013002B06D054
:101DE0001A4BDA681949BB691343CB6006E0174BFD
:101DF000DA68BB69DB4315491340CB607B6A01336A
:101E00007B623B681A687B6A22FA03F3002B7FF43B
:101E1000AFAE00BF00BF2C37BD4680BC704700BFCF
:101E200000003210000031100000221000002110CC
:101E300000001210000011100010024000000140CC
:101E400000080140000C0140001001400004014066
:101E500080B485B000AF78600B467B807B689A6861
:101E60007B881340002B02D00123FB7301E0002389
:101E7000FB73FB7B18461437BD4680BC704780B4AB
:101E800083B000AF78600B467B8013467B707B7815
:101E9000002B03D07A887B681A6103E07B881A04E0
:101EA0007B681A6100BF0C37BD4680BC704780B4A8
:101EB00085B000AF78600B467B807B68DB68FB6099
:101EC0007A88FB6813401A04FB68D9437B880B406F
:101ED0001A437B681A6100BF1437BD4680BC704747
:101EE00080B586B000AF78607B68002B01D10123FC
:101EF0006CE27B681B6803F00103002B00F0878015
:101F0000924B5B6803F00C03042B0CD08F4B5B6887
:101F100003F00C03082B12D18C4B5B6803F4803365
:101F2000B3F5803F0BD1894B1B6803F40033002BC2
:101F30006CD07B685B68002B68D1012346E27B682C
:101F40005B68B3F5803F06D1804B1B687F4A43F442
:101F5000803313602EE07B685B68002B0CD17B4BD9
:101F60001B687A4A23F480331360784B1B68774AE6
:101F700023F4802313601DE07B685B68B3F5A02F1A
:101F80000CD1724B1B68714A43F4802313606F4B72
:101F90001B686E4A43F4803313600BE06B4B1B6885
:101FA0006A4A23F480331360684B1B68674A23F442
:101FB000802313607B685B68002B13D0FFF7B6FCAF
:101FC000386108E0FFF7B2FC02463B69D31A642B84
:101FD00001D90323FAE15D4B1B6803F40033002BA6
:101FE000F0D014E0FFF7A2FC386108E0FFF79EFC98
:101FF00002463B69D31A642B01D90323E6E1534B14
:102000001B6803F40033002BF0D100E000BF7B68B5
:102010001B6803F00203002B63D04C4B5B6803F09A
:102020000C03002B0BD0494B5B6803F00C03082B0F
:102030001CD1464B5B6803F48033002B16D1434B15
:102040001B6803F00203002B05D07B681B69012B82
:1020500001D00123BAE13D4B1B6823F0F8027B68F5
:102060005B69DB00394913430B603AE07B681B690D
:10207000002B20D0364B01221A60FFF757FC386145
:1020800008E0FFF753FC02463B69D31A022B01D943
:1020900003239BE12D4B1B6803F00203002BF0D0C0
:1020A0002A4B1B6823F0F8027B685B69DB00274939
:1020B00013430B6015E0264B00221A60FFF736FC35
:1020C000386108E0FFF732FC02463B69D31A022B65
:1020D00001D903237AE11D4B1B6803F00203002B97
:1020E000F0D17B681B6803F00803002B3AD07B68B3
:1020F0009B69002B19D0174B01221A60FFF716FCC1
:10210000386108E0FFF712FC02463B69D31A022B44
:1021100001D903235AE10D4B5B6A03F00203002B44
:10212000F0D0012000F0A6FA1CE00A4B00221A6051
:10213000FFF7FCFB38610FE0FFF7F8FB02463B6955
:10214000D31A022B08D9032340E100BF001002403C
:1021500000004242800442429E4B5B6A03F002034D
:10216000002BE9D17B681B6803F00403002B00F00F
:10217000A6800023FB75974BDB6903F08053002B8F
:102180000DD1944BDB69934A43F08053D361914B5B
:10219000DB6903F08053BB60BB680123FB758E4B8A
:1021A0001B6803F48073002B18D18B4B1B688A4A81
:1021B00043F480731360FFF7B9FB386108E0FFF761
:1021C000B5FB02463B69D31A642B01D90323FDE01A
:1021D000814B1B6803F48073002BF0D07B68DB68B5
:1021E000012B06D17B4B1B6A7A4A43F00103136231
:1021F0002DE07B68DB68002B0CD1764B1B6A754A9F
:1022000023F001031362734B1B6A724A23F0040329
:1022100013621CE07B68DB68052B0CD16D4B1B6ADD
:102220006C4A43F0040313626A4B1B6A694A43F029
:10223000010313620BE0674B1B6A664A23F001033C
:102240001362644B1B6A634A23F0040313627B68C6
:10225000DB68002B15D0FFF769FB38610AE0FFF758
:1022600065FB02463B69D31A41F28832934201D999
:102270000323ABE0574B1B6A03F00203002BEED0A5
:1022800014E0FFF753FB38610AE0FFF74FFB02460B
:102290003B69D31A41F28832934201D9032395E076
:1022A0004C4B1B6A03F00203002BEED1FB7D012B8C
:1022B00005D1484BDB69474A23F08053D3617B68E3
:1022C000DB69002B00F08180424B5B6803F00C035C
:1022D000082B61D07B68DB69022B46D13F4B002283
:1022E0001A60FFF723FB386108E0FFF71FFB024687
:1022F0003B69D31A022B01D9032367E0354B1B68D6
:1023000003F00073002BF0D17B681B6AB3F5803FAC
:1023100008D1304B5B6823F400327B689B682D4901
:1023200013434B602B4B5B6823F474127B68196A70
:102330007B685B6A0B43274913434B60274B0122A1
:102340001A60FFF7F3FA386108E0FFF7EFFA024688
:102350003B69D31A022B01D9032337E01D4B1B68BD
:1023600003F00073002BF0D02FE01C4B00221A600A
:10237000FFF7DCFA386108E0FFF7D8FA02463B695C
:10238000D31A022B01D9032320E0124B1B6803F060
:102390000073002BF0D118E07B68DB69012B01D1C1
:1023A000012313E00B4B5B68FB60FB6803F4803296
:1023B0007B681B6A9A4206D1FB6803F470127B6843
:1023C0005B6A9A4201D0012300E0002318461837C7
:1023D000BD4680BD001002400070004060004242D7
:1023E00080B584B000AF786039607B68002B01D184
:1023F0000123D0E06A4B1B6803F007033A689A4256
:1024000010D9674B1B6823F0070265493B681343EB
:102410000B60634B1B6803F007033A689A4201D0D4
:102420000123B8E07B681B6803F00203002B20D077
:102430007B681B6803F00403002B05D0594B5B68D5
:10244000584A43F4E06353607B681B6803F0080359
:10245000002B05D0534B5B68524A43F460535360E2
:10246000504B5B6823F0F0027B689B684D49134337
:102470004B607B681B6803F00103002B40D07B6836
:102480005B68012B07D1474B1B6803F40033002B1B
:1024900015D101237FE07B685B68022B07D1414B9C
:1024A0001B6803F00073002B09D1012373E03D4B3F
:1024B0001B6803F00203002B01D101236BE0394BB1
:1024C0005B6823F003027B685B68364913434B600B
:1024D000FFF72CFAF8600AE0FFF728FA0246FB68DB
:1024E000D31A41F28832934201D9032353E02D4B92
:1024F0005B6803F00C027B685B689B009A42EBD13F
:10250000274B1B6803F007033A689A4210D2244B0A
:102510001B6823F0070222493B6813430B60204BE2
:102520001B6803F007033A689A4201D0012332E0A6
:102530007B681B6803F00403002B08D0194B5B6811
:1025400023F4E0627B68DB68164913434B607B68C9
:102550001B6803F00803002B09D0124B5B6823F4BF
:1025600060527B681B69DB000E4913434B6000F02F
:1025700021F802460B4B5B681B0903F00F030A4965
:10258000CB5C22FA03F3094A1360094B1B68184617
:10259000FFF78AF9002318461037BD4680BD00BFFB
:1025A0000020024000100240F82E00082000002009
:1025B0002400002090B48AB000AF2A4B3C1D0FCB02
:1025C00084E80F0040F201233B800023FB610023DD
:1025D000BB6100237B6200237B6100233B62224BB3
:1025E0005B68FB61FB6903F00C03042B02D0082B32
:1025F00003D02DE01D4B3B622DE0FB699B0C03F0EB
:102600000F0307F12802134413F8243C7B61FB6994
:1026100003F48033002B13D0134B5B685B0C03F087
:10262000010307F12802134413F8283CBB617B69BE
:102630000E4A02FB03F2BB69B2FBF3F37B6204E0D8
:102640007B690B4A02FB03F37B627B6A3B6202E01D
:10265000064B3B6200BF3B6A18462837BD4690BC1C
:10266000704700BFE82E00080010024000127A00F8
:1026700000093D0080B485B000AF78600A4B1B684C
:102680000A4AA2FB03235B0A7A6802FB03F3FB609E
:1026900000BFFB685A1EFA60002BF9D100BF00BFD3
:1026A0001437BD4680BC704720000020D34D621017
:1026B00080B582B000AF78607B68002B01D1012328
:1026C00041E07B6893F83D30DBB2002B06D17B689C
:1026D000002283F83C207868FFF74EF87B680222DE
:1026E00083F83D207B681A687B68043319461046DE
:1026F00000F06AFA7B68012283F846207B68012299
:1027000083F83E207B68012283F83F207B6801220A
:1027100083F840207B68012283F841207B680122F6
:1027200083F842207B68012283F843207B680122E2
:1027300083F844207B68012283F845207B680122CE
:1027400083F83D20002318460837BD4680BD0000B1
:1027500080B485B000AF78607B6893F83D30DBB221
:10276000012B01D0012335E07B68022283F83D2054
:102770007B681B68DA687B681B6842F00102DA60DC
:102780007B681B68164A934209D07B681B68B3F1CB
:10279000804F04D07B681B68124A934211D17B683A
:1027A0001B689B6803F00703FB60FB68062B10D0D7
:1027B0007B681B681A687B681B6842F001021A601C
:1027C00007E07B681B681A687B681B6842F001029F
:1027D0001A60002318461437BD4680BC704700BFFE
:1027E000002C01400004004080B582B000AF78604A
:1027F0007B681B681B6903F00203022B22D17B68F4
:102800001B68DB6803F00203022B1BD17B681B688B
:102810006FF002021A617B6801221A777B681B68DD
:102820009B6903F00303002B03D0786800F0B1F933
:1028300005E0786800F0A4F9786800F0B3F97B68E7
:1028400000221A777B681B681B6903F00403042BC2
:1028500022D17B681B68DB6803F00403042B1BD1C7
:102860007B681B686FF004021A617B6802221A778A
:102870007B681B689B6903F44073002B03D0786866
:1028800000F087F905E0786800F07AF9786800F0E0
:1028900089F97B6800221A777B681B681B6903F043
:1028A0000803082B22D17B681B68DB6803F0080350
:1028B000082B1BD17B681B686FF008021A617B68CC
:1028C00004221A777B681B68DB6903F00303002B83
:1028D00003D0786800F05DF905E0786800F050F901
:1028E000786800F05FF97B6800221A777B681B68C4
:1028F0001B6903F01003102B22D17B681B68DB6877
:1029000003F01003102B1BD17B681B686FF01002C3
:102910001A617B6808221A777B681B68DB6903F4FD
:102920004073002B03D0786800F033F905E0786835
:1029300000F026F9786800F035F97B6800221A77F4
:102940007B681B681B6903F00103012B0ED17B68B8
:102950001B68DB6803F00103012B07D17B681B6850
:102960006FF001021A617868FEF736FD7B681B681C
:102970001B6903F08003802B0ED17B681B68DB682A
:1029800003F08003802B07D17B681B686FF0800207
:102990001A61786800F067FA7B681B681B6903F0AE
:1029A0004003402B0ED17B681B68DB6803F04003BB
:1029B000402B07D17B681B686FF040021A61786872
:1029C00000F0F9F87B681B681B6903F02003202BDB
:1029D0000ED17B681B68DB6803F02003202B07D136
:1029E0007B681B686FF020021A61786800F032FA89
:1029F00000BF0837BD4680BD80B584B000AF7860A9
:102A000039607B6893F83C30012B01D10223B3E09D
:102A10007B68012283F83C207B68022283F83D20FA
:102A20007B681B689B68FB60FB6823F07703FB6097
:102A3000FB6823F47F43FB607B681B68FA689A603D
:102A40003B681B68B3F5005F3ED0B3F5005F00F252
:102A50008780B3F5805F00F08580B3F5805F7FD815
:102A6000702B1AD0702B7BD8602B50D0602B77D86E
:102A7000502B3CD0502B73D8402B58D0402B6FD8C4
:102A8000302B64D0302B6BD8202B60D0202B67D814
:102A9000002B5CD0102B5AD062E07B6818683B6832
:102AA00099683B685A683B68DB6800F05CF97B68B2
:102AB0001B689B68FB60FB6843F07703FB607B68E7
:102AC0001B68FA689A604EE07B6818683B689968F2
:102AD0003B685A683B68DB6800F045F97B681B6817
:102AE0009A687B681B6842F480429A603BE07B688E
:102AF00018683B6859683B68DB681A4600F0BCF808
:102B00007B681B685021184600F013F92BE07B68A6
:102B100018683B6859683B68DB681A4600F0DAF8C9
:102B20007B681B686021184600F003F91BE07B6896
:102B300018683B6859683B68DB681A4600F09CF8E7
:102B40007B681B684021184600F0F3F80BE07B68B7
:102B50001A683B681B681946104600F0EAF802E064
:102B600000BF00E000BF7B68012283F83D207B6846
:102B7000002283F83C20002318461037BD4680BD54
:102B800080B483B000AF786000BF0C37BD4680BC16
:102B9000704780B483B000AF786000BF0C37BD468B
:102BA00080BC704780B483B000AF786000BF0C3742
:102BB000BD4680BC704780B483B000AF786000BF72
:102BC0000C37BD4680BC704780B485B000AF7860DC
:102BD00039607B681B68FB607B68254A934207D09D
:102BE0007B68B3F1804F03D07B68224A934208D1BF
:102BF000FB6823F07003FB603B685B68FA68134373
:102C0000FB607B681A4A934207D07B68B3F1804F20
:102C100003D07B68174A934208D1FB6823F44073C2
:102C2000FB603B68DB68FA681343FB60FB6823F0DA
:102C300080023B685B691343FB607B68FA681A603B
:102C40003B689A687B68DA623B681A687B689A62BC
:102C50007B68074A934203D13B681A697B681A6311
:102C60007B6801225A6100BF1437BD4680BC7047A3
:102C7000002C01400004004080B487B000AFF86031
:102C8000B9607A60FB681B6A7B61FB681B6A23F092
:102C90000102FB681A62FB689B693B613B6923F098
:102CA000F0033B617B681B013A6913433B617B691D
:102CB00023F00A037B617A69BB6813437B61FB687D
:102CC0003A699A61FB687A691A6200BF1C37BD468F
:102CD00080BC704780B487B000AFF860B9607A609C
:102CE000FB681B6A23F01002FB681A62FB689B6991
:102CF0007B61FB681B6A3B617B6923F470437B61EA
:102D00007B681B037A6913437B613B6923F0A00353
:102D10003B61BB681B013A6913433B61FB687A69FD
:102D20009A61FB683A691A6200BF1C37BD4680BCD5
:102D3000704780B485B000AF786039607B689B686D
:102D4000FB60FB6823F07003FB603A68FB68134389
:102D500043F00703FB607B68FA689A6000BF143792
:102D6000BD4680BC704780B487B000AFF860B960E2
:102D70007A603B60FB689B687B617B6923F47F43DF
:102D80007B613B681A027B681A43BB6813437A690C
:102D900013437B61FB687A699A6000BF1C37BD46AC
:102DA00080BC704780B485B000AF786039607B68C4
:102DB00093F83C30012B01D1022341E07B680122D2
:102DC00083F83C207B68022283F83D207B681B68E7
:102DD0005B68FB607B681B689B68BB60FB6823F0DB
:102DE0007003FB603B681B68FA681343FB607B68F9
:102DF0001B68FA685A607B681B68144A934209D0C2
:102E00007B681B68B3F1804F04D07B681B68104A55
:102E100093420CD1BB6823F08003BB603B685B68C6
:102E2000BA681343BB607B681B68BA689A607B68AA
:102E3000012283F83D207B68002283F83C20002398
:102E400018461437BD4680BC704700BF002C0140B7
:102E50000004004080B483B000AF786000BF0C373E
:102E6000BD4680BC704780B483B000AF786000BFBF
:102E70000C37BD4680BC704770B500260C4D0D4C1C
:102E8000641BA410A64209D100F022F800260A4DC6
:102E90000A4C641BA410A64205D170BD55F8043B32
:102EA00098470136EEE755F8043B98470136F2E7BC
:102EB000082F0008082F0008082F00080C2F000812
:102EC00003460244934200D1704703F8011BF9E71F
:102ED000F8B500BFF8BC08BC9E467047F8B500BF07
:082EE000F8BC08BC9E467047D7
:102EE80002030405060708090A0B0C0D0E0F101043
:102EF80000000000000000000102030406070809A2
:042F08003501000887
:042F0C0011010008A7
:102F100006000000030000000300000001000000A4
:102F20000100000001000000020000001400000089
:0C2F30000024F40010000000010000006C
:0400000508001831A6
:00000001FF
